:020000040000FA
:040000000E200528A1
:040004000034003490
:08000800090018203C204130E2
:100010002E2042302E2035202E200D282100783031
:10002000990020008C0123008C0121008C01080024
:1000300023001E15230033309B0021008C160C1268
:1000400022009D171D1523001E129E1621009112DD
:10005000111223009D171D162000080023009A008E
:100060002000111E3128200008002000911E352894
:1000700023001908200008009F30A0001030A100C4
:10008000A00B4328A10B4028452808002000113070
:10009000A0005D30A1000530A200A00B5028A10BEC
:0C00A0005228A20B4D28542855280800B7
:020000040001F9
:02000E00E40903
:02001000FF1CD3
:08E000004D00430048005000F0
:00000001FF
